:1000000002002A9B001195002C7E121D2C7E1222CC
:100010009B002A95001197007E122C1C7E122C2C1E
:100020002295002A97001199007E122C1C7E122C1A
:100030002C2297001199001A671C6FE92A9B001166
:1000400095001A2D771C1A2D77229B0011970021FD
:1000500095001A772C1C1A772A9D00E90745584508
:1000600000006400E1C32300034455507C0070008D
:10007000E1E5E5C3120008434F4E00007E003C005E
:100080002A97001199007E47122C1C7E4F12C5C37F
:1000900012003EAA764001AA019200A000120000C0
:1000A000010203040506000000000000000000003B
:0300C0003EFF768A
:00000001FF
